{
  "transactions": [
    {
      "hash": "0xcd5c76394bbe4bed1b9e214ae43ab76af7b2b44a4e79984172d4e4b132b2a47a",
      "transactionType": "CALL",
      "contractName": null,
      "contractAddress": "0x606fae14a25ffb18a7749cddcd78d6cb90d573c8",
      "function": "transfer(address,uint256)",
      "arguments": [
        "0xbbF9db5EccccC937eb57A24815E2727d85Ef7c0f",
        "1000000000000000000000"
      ],
      "transaction": {
        "from": "0x7b1f65917aa78cf715dfbfa88181ee81bad45681",
        "to": "0x606fae14a25ffb18a7749cddcd78d6cb90d573c8",
        "gas": "0x13790",
        "value": "0x0",
        "input": "0xa9059cbb000000000000000000000000bbf9db5eccccc937eb57a24815e2727d85ef7c0f00000000000000000000000000000000000000000000003635c9adc5dea00000",
        "nonce": "0xf",
        "chainId": "0xaa36a7"
      },
      "additionalContracts": [],
      "isFixedGasLimit": false
    },
    {
      "hash": "0x456b59b06a008b712e43716ecbff49fa9ffca49190cb4ecb09bd7c6a5d9dd4ba",
      "transactionType": "CALL",
      "contractName": null,
      "contractAddress": "0xbbf9db5eccccc937eb57a24815e2727d85ef7c0f",
      "function": "notifyRewardAmount(uint256)",
      "arguments": [
        "1000000000000000000000"
      ],
      "transaction": {
        "from": "0x7b1f65917aa78cf715dfbfa88181ee81bad45681",
        "to": "0xbbf9db5eccccc937eb57a24815e2727d85ef7c0f",
        "gas": "0x1d641",
        "value": "0x0",
        "input": "0x3c6b16ab00000000000000000000000000000000000000000000003635c9adc5dea00000",
        "nonce": "0x10",
        "chainId": "0xaa36a7"
      },
      "additionalContracts": [],
      "isFixedGasLimit": false
    }
  ],
  "receipts": [
    {
      "status": "0x1",
      "cumulativeGasUsed": "0x76c05b",
      "logs": [
        {
          "address": "0x606fae14a25ffb18a7749cddcd78d6cb90d573c8",
          "topics": [
            "0xddf252ad1be2c89b69c2b068fc378daa952ba7f163c4a11628f55a4df523b3ef",
            "0x0000000000000000000000007b1f65917aa78cf715dfbfa88181ee81bad45681",
            "0x000000000000000000000000bbf9db5eccccc937eb57a24815e2727d85ef7c0f"
          ],
          "data": "0x00000000000000000000000000000000000000000000003635c9adc5dea00000",
          "blockHash": "0x7448904a3b39021d135ce88b08c5fac06cbc3d0bfbc3f609c94eaf364618f945",
          "blockNumber": "0x980bb6",
          "blockTimestamp": "0x6957a0ec",
          "transactionHash": "0xcd5c76394bbe4bed1b9e214ae43ab76af7b2b44a4e79984172d4e4b132b2a47a",
          "transactionIndex": "0x2c",
          "logIndex": "0x74",
          "removed": false
        }
      ],
      "logsBloom": "0x00000000000000000000000000008000008000000000000000000000000000000000000000000000000000000000000000000040000000000000000000000000000000000000000000000008000000000000000000000000000000000000000000000000000000000000000000000000000008000000000000000010000000000000000000000000000000000000000000000000000000000000000000000000000000000000000100000000000000000000000000000000000040000000000000000002000000000000000000040000000000000000000000000000000000000000000800000000000000000000000000000000000000000000000000000000",
      "type": "0x2",
      "transactionHash": "0xcd5c76394bbe4bed1b9e214ae43ab76af7b2b44a4e79984172d4e4b132b2a47a",
      "transactionIndex": "0x2c",
      "blockHash": "0x7448904a3b39021d135ce88b08c5fac06cbc3d0bfbc3f609c94eaf364618f945",
      "blockNumber": "0x980bb6",
      "gasUsed": "0xd509",
      "effectiveGasPrice": "0x1005f0",
      "from": "0x7b1f65917aa78cf715dfbfa88181ee81bad45681",
      "to": "0x606fae14a25ffb18a7749cddcd78d6cb90d573c8",
      "contractAddress": null
    },
    {
      "status": "0x1",
      "cumulativeGasUsed": "0x788381",
      "logs": [
        {
          "address": "0xbbf9db5eccccc937eb57a24815e2727d85ef7c0f",
          "topics": [
            "0xc390a98ace15a7bb6bab611eedfdbb2685043b241a869420043cdfb23ccfee50"
          ],
          "data": "0x00000000000000000000000000000000000000000000000000000000000000000000000000000000000000000000000000000000000000000005dfcb4d6601b1",
          "blockHash": "0x7448904a3b39021d135ce88b08c5fac06cbc3d0bfbc3f609c94eaf364618f945",
          "blockNumber": "0x980bb6",
          "blockTimestamp": "0x6957a0ec",
          "transactionHash": "0x456b59b06a008b712e43716ecbff49fa9ffca49190cb4ecb09bd7c6a5d9dd4ba",
          "transactionIndex": "0x2e",
          "logIndex": "0x76",
          "removed": false
        },
        {
          "address": "0xbbf9db5eccccc937eb57a24815e2727d85ef7c0f",
          "topics": [
            "0xb0d8d55fb2a6be64c330087dfcf292ea3985ca8623478e6adbef383f426364e2"
          ],
          "data": "0x00000000000000000000000000000000000000000000003635c9adc5dea000000000000000000000000000000000000000000000000000000005dfcb4d6601b1000000000000000000000000000000000000000000000000000000006960db6c",
          "blockHash": "0x7448904a3b39021d135ce88b08c5fac06cbc3d0bfbc3f609c94eaf364618f945",
          "blockNumber": "0x980bb6",
          "blockTimestamp": "0x6957a0ec",
          "transactionHash": "0x456b59b06a008b712e43716ecbff49fa9ffca49190cb4ecb09bd7c6a5d9dd4ba",
          "transactionIndex": "0x2e",
          "logIndex": "0x77",
          "removed": false
        }
      ],
      "logsBloom": "0x00000000000000000010000000000000000000000000000000000000000020000000000000000000000000000000000000000000000000000000000000010000000000000000000000000000000000000000000000000000000000000000000000000000000000000000000000000000000000000000000000000000000000000000000000000000000000000000000000000000000000000000000000000000000000000000000000000000000000000400000000000000000008000000200000000000000000000000000000000000000020000000000000000000000000000000000000000002000000000000000000000000000000000000000010000000",
      "type": "0x2",
      "transactionHash": "0x456b59b06a008b712e43716ecbff49fa9ffca49190cb4ecb09bd7c6a5d9dd4ba",
      "transactionIndex": "0x2e",
      "blockHash": "0x7448904a3b39021d135ce88b08c5fac06cbc3d0bfbc3f609c94eaf364618f945",
      "blockNumber": "0x980bb6",
      "gasUsed": "0x15475",
      "effectiveGasPrice": "0x1005f0",
      "from": "0x7b1f65917aa78cf715dfbfa88181ee81bad45681",
      "to": "0xbbf9db5eccccc937eb57a24815e2727d85ef7c0f",
      "contractAddress": null
    }
  ],
  "libraries": [],
  "pending": [],
  "returns": {},
  "timestamp": 1767350509860,
  "chain": 11155111,
  "commit": "3cf2a34"
}