{
  "transactions": [
    {
      "hash": "0xba26319dc34a169b6a6cd4c244ccf8d1c78ec137e182a700e5c9a6f2791dce69",
      "transactionType": "CALL",
      "contractName": null,
      "contractAddress": "0xbde14dd09bcf91f45725fbb8a72e1ea295501fd2",
      "function": "transfer(address,uint256)",
      "arguments": [
        "0xd2826bf07d437C5dfCfc26544e8c4AB998393471",
        "10000000000000000000000"
      ],
      "transaction": {
        "from": "0x7b1f65917aa78cf715dfbfa88181ee81bad45681",
        "to": "0xbde14dd09bcf91f45725fbb8a72e1ea295501fd2",
        "gas": "0x122dc",
        "value": "0x0",
        "input": "0xa9059cbb000000000000000000000000d2826bf07d437c5dfcfc26544e8c4ab99839347100000000000000000000000000000000000000000000021e19e0c9bab2400000",
        "nonce": "0x1e",
        "chainId": "0xaa36a7"
      },
      "additionalContracts": [],
      "isFixedGasLimit": false
    },
    {
      "hash": "0xc300e42582c036851cdc752aa2c08ebfcebec92a9caa501f2fafa3ef2342f110",
      "transactionType": "CALL",
      "contractName": null,
      "contractAddress": "0xd2826bf07d437c5dfcfc26544e8c4ab998393471",
      "function": "notifyRewardAmount(uint256)",
      "arguments": [
        "10000000000000000000000"
      ],
      "transaction": {
        "from": "0x7b1f65917aa78cf715dfbfa88181ee81bad45681",
        "to": "0xd2826bf07d437c5dfcfc26544e8c4ab998393471",
        "gas": "0x1f064",
        "value": "0x0",
        "input": "0x3c6b16ab00000000000000000000000000000000000000000000021e19e0c9bab2400000",
        "nonce": "0x1f",
        "chainId": "0xaa36a7"
      },
      "additionalContracts": [],
      "isFixedGasLimit": false
    }
  ],
  "receipts": [
    {
      "status": "0x1",
      "cumulativeGasUsed": "0x2f85fde",
      "logs": [
        {
          "address": "0xbde14dd09bcf91f45725fbb8a72e1ea295501fd2",
          "topics": [
            "0xddf252ad1be2c89b69c2b068fc378daa952ba7f163c4a11628f55a4df523b3ef",
            "0x0000000000000000000000007b1f65917aa78cf715dfbfa88181ee81bad45681",
            "0x000000000000000000000000d2826bf07d437c5dfcfc26544e8c4ab998393471"
          ],
          "data": "0x00000000000000000000000000000000000000000000021e19e0c9bab2400000",
          "blockHash": "0x5261aed06240670a35dcbecc1f0d6358d2426d0e68d8797ff150ad6581e837da",
          "blockNumber": "0x985eda",
          "blockTimestamp": "0x695c14e0",
          "transactionHash": "0xba26319dc34a169b6a6cd4c244ccf8d1c78ec137e182a700e5c9a6f2791dce69",
          "transactionIndex": "0x2d",
          "logIndex": "0x276",
          "removed": false
        }
      ],
      "logsBloom": "0x00000000000000000020000000008000000000000000000000000000000000000000000000000000000000000000000000000000000000000000000000000000000000000000000000000008000000000000000000000000000000000000000000000000000000000000010000000000000008000000000000000010000000000000000000000000000000000000000000100000000000000000000000000000000000000000000000000001000000000000000000000000000040000000000000000002000000000002000000000000000000000000000000000000000000000000000000000000000000000000000000000020000000000000000000000000",
      "type": "0x2",
      "transactionHash": "0xba26319dc34a169b6a6cd4c244ccf8d1c78ec137e182a700e5c9a6f2791dce69",
      "transactionIndex": "0x2d",
      "blockHash": "0x5261aed06240670a35dcbecc1f0d6358d2426d0e68d8797ff150ad6581e837da",
      "blockNumber": "0x985eda",
      "gasUsed": "0xd294",
      "effectiveGasPrice": "0x7402a3",
      "from": "0x7b1f65917aa78cf715dfbfa88181ee81bad45681",
      "to": "0xbde14dd09bcf91f45725fbb8a72e1ea295501fd2",
      "contractAddress": null
    },
    {
      "status": "0x1",
      "cumulativeGasUsed": "0x2f9b348",
      "logs": [
        {
          "address": "0xd2826bf07d437c5dfcfc26544e8c4ab998393471",
          "topics": [
            "0xc390a98ace15a7bb6bab611eedfdbb2685043b241a869420043cdfb23ccfee50"
          ],
          "data": "0x0000000000000000000000000000000000000000000000000000000000000000000000000000000000000000000000000000000000000000003abdf105fc10ee",
          "blockHash": "0x5261aed06240670a35dcbecc1f0d6358d2426d0e68d8797ff150ad6581e837da",
          "blockNumber": "0x985eda",
          "blockTimestamp": "0x695c14e0",
          "transactionHash": "0xc300e42582c036851cdc752aa2c08ebfcebec92a9caa501f2fafa3ef2342f110",
          "transactionIndex": "0x2e",
          "logIndex": "0x277",
          "removed": false
        },
        {
          "address": "0xd2826bf07d437c5dfcfc26544e8c4ab998393471",
          "topics": [
            "0xb0d8d55fb2a6be64c330087dfcf292ea3985ca8623478e6adbef383f426364e2"
          ],
          "data": "0x00000000000000000000000000000000000000000000021e19e0c9bab2400000000000000000000000000000000000000000000000000000003abdf105fc10ee0000000000000000000000000000000000000000000000000000000069654f60",
          "blockHash": "0x5261aed06240670a35dcbecc1f0d6358d2426d0e68d8797ff150ad6581e837da",
          "blockNumber": "0x985eda",
          "blockTimestamp": "0x695c14e0",
          "transactionHash": "0xc300e42582c036851cdc752aa2c08ebfcebec92a9caa501f2fafa3ef2342f110",
          "transactionIndex": "0x2e",
          "logIndex": "0x278",
          "removed": false
        }
      ],
      "logsBloom": "0x00000000000000000010000000000000000000000000000000000000000020000000000000000000000000000000000000000000000000000000000000010000000000000000000000000000000000000000000000000000000000000000000080000000000000000000000000000000000000000000000080000000000000000000000000000000000000000000000000000000000000000000000000000000000000000000000000000000800000000400000000000000000000000000000000000000000000000000000000000000000020000000000000000000000000000000000000000002000000000000000000000000000000000000000000000000",
      "type": "0x2",
      "transactionHash": "0xc300e42582c036851cdc752aa2c08ebfcebec92a9caa501f2fafa3ef2342f110",
      "transactionIndex": "0x2e",
      "blockHash": "0x5261aed06240670a35dcbecc1f0d6358d2426d0e68d8797ff150ad6581e837da",
      "blockNumber": "0x985eda",
      "gasUsed": "0x1536a",
      "effectiveGasPrice": "0x7402a3",
      "from": "0x7b1f65917aa78cf715dfbfa88181ee81bad45681",
      "to": "0xd2826bf07d437c5dfcfc26544e8c4ab998393471",
      "contractAddress": null
    }
  ],
  "libraries": [],
  "pending": [],
  "returns": {},
  "timestamp": 1767642336432,
  "chain": 11155111,
  "commit": "fe95975"
}