{
  "transactions": [
    {
      "hash": "0x424edd81a2c1dd8cd1745a2b0971bf1529e9ae67e7167e62a42724e3417f5f45",
      "transactionType": "CALL",
      "contractName": null,
      "contractAddress": "0x606fae14a25ffb18a7749cddcd78d6cb90d573c8",
      "function": "grantRole(bytes32,address)",
      "arguments": [
        "0x9f2df0fed2c77648de5860a4cc508cd0818c85b8b8a1ab4ceeef8d981c8956a6",
        "0xb7d798321515FD0e6C2a3B8781E36aB4A74bCCb7"
      ],
      "transaction": {
        "from": "0x7b1f65917aa78cf715dfbfa88181ee81bad45681",
        "to": "0x606fae14a25ffb18a7749cddcd78d6cb90d573c8",
        "gas": "0x12995",
        "value": "0x0",
        "input": "0x2f2ff15d9f2df0fed2c77648de5860a4cc508cd0818c85b8b8a1ab4ceeef8d981c8956a6000000000000000000000000b7d798321515fd0e6c2a3b8781e36ab4a74bccb7",
        "nonce": "0x3",
        "chainId": "0xaa36a7"
      },
      "additionalContracts": [],
      "isFixedGasLimit": false
    },
    {
      "hash": "0xde9e03541801c94eb3614de02438b1d1e04db1ab6b7bb7ef1ab3c873b26f2ed5",
      "transactionType": "CALL",
      "contractName": null,
      "contractAddress": "0xb7d798321515fd0e6c2a3b8781e36ab4a74bccb7",
      "function": "setRewardRate(uint256)",
      "arguments": [
        "50000000000000000"
      ],
      "transaction": {
        "from": "0x7b1f65917aa78cf715dfbfa88181ee81bad45681",
        "to": "0xb7d798321515fd0e6c2a3b8781e36ab4a74bccb7",
        "gas": "0x12936",
        "value": "0x0",
        "input": "0x9e447fc600000000000000000000000000000000000000000000000000b1a2bc2ec50000",
        "nonce": "0x4",
        "chainId": "0xaa36a7"
      },
      "additionalContracts": [],
      "isFixedGasLimit": false
    }
  ],
  "receipts": [
    {
      "status": "0x1",
      "cumulativeGasUsed": "0x1286896",
      "logs": [
        {
          "address": "0x606fae14a25ffb18a7749cddcd78d6cb90d573c8",
          "topics": [
            "0x2f8788117e7eff1d82e926ec794901d17c78024a50270940304540a733656f0d",
            "0x9f2df0fed2c77648de5860a4cc508cd0818c85b8b8a1ab4ceeef8d981c8956a6",
            "0x000000000000000000000000b7d798321515fd0e6c2a3b8781e36ab4a74bccb7",
            "0x0000000000000000000000007b1f65917aa78cf715dfbfa88181ee81bad45681"
          ],
          "data": "0x",
          "blockHash": "0x60c392c2eb0375c0a913a2218a26c7e27f14f234bfae82fbee80429a89e54c78",
          "blockNumber": "0x9692cf",
          "blockTimestamp": "0x69443eec",
          "transactionHash": "0x424edd81a2c1dd8cd1745a2b0971bf1529e9ae67e7167e62a42724e3417f5f45",
          "transactionIndex": "0x41",
          "logIndex": "0x2cd",
          "removed": false
        }
      ],
      "logsBloom": "0x00000004000000400000000000008000000000000000000000000000000000000000000000000000000000000000004000000040000000000000000000000000000000000000000000000000000000000000000000000000000000000000000000000000000000000000000000000000000008000000000000000000001000000000000000000000000000000000000000000000000000000000000000000000000000000000000100000000000001000000000000000000001040000000000000000000000800000000000000000000001000000000000100000000000000000000000800000000000000000000000000000000000000000000000000000000",
      "type": "0x2",
      "transactionHash": "0x424edd81a2c1dd8cd1745a2b0971bf1529e9ae67e7167e62a42724e3417f5f45",
      "transactionIndex": "0x41",
      "blockHash": "0x60c392c2eb0375c0a913a2218a26c7e27f14f234bfae82fbee80429a89e54c78",
      "blockNumber": "0x9692cf",
      "gasUsed": "0xcb7a",
      "effectiveGasPrice": "0x11384e",
      "from": "0x7b1f65917aa78cf715dfbfa88181ee81bad45681",
      "to": "0x606fae14a25ffb18a7749cddcd78d6cb90d573c8",
      "contractAddress": null
    },
    {
      "status": "0x1",
      "cumulativeGasUsed": "0x1293fc4",
      "logs": [
        {
          "address": "0xb7d798321515fd0e6c2a3b8781e36ab4a74bccb7",
          "topics": [
            "0xc390a98ace15a7bb6bab611eedfdbb2685043b241a869420043cdfb23ccfee50"
          ],
          "data": "0x000000000000000000000000000000000000000000000000000000000000000000000000000000000000000000000000000000000000000000b1a2bc2ec50000",
          "blockHash": "0x60c392c2eb0375c0a913a2218a26c7e27f14f234bfae82fbee80429a89e54c78",
          "blockNumber": "0x9692cf",
          "blockTimestamp": "0x69443eec",
          "transactionHash": "0xde9e03541801c94eb3614de02438b1d1e04db1ab6b7bb7ef1ab3c873b26f2ed5",
          "transactionIndex": "0x42",
          "logIndex": "0x2ce",
          "removed": false
        }
      ],
      "logsBloom": "0x00000000000000000010000000000000000000000000000000000000000020000000000000000000000000000000000000000000000000000000000000000000000000000000000000000000000000000000000000000000000000000000000000000000000000000000000000000000000000000000000000000000000000000000000000000000000000100000000000000000000000000000000008000000000000000000000000000000000000000400000000000000000000000000000000000000000000000000000000000000000000000000000000000000000000000000000000000000000020000000000000000000000000000000000000000000",
      "type": "0x2",
      "transactionHash": "0xde9e03541801c94eb3614de02438b1d1e04db1ab6b7bb7ef1ab3c873b26f2ed5",
      "transactionIndex": "0x42",
      "blockHash": "0x60c392c2eb0375c0a913a2218a26c7e27f14f234bfae82fbee80429a89e54c78",
      "blockNumber": "0x9692cf",
      "gasUsed": "0xd72e",
      "effectiveGasPrice": "0x11384e",
      "from": "0x7b1f65917aa78cf715dfbfa88181ee81bad45681",
      "to": "0xb7d798321515fd0e6c2a3b8781e36ab4a74bccb7",
      "contractAddress": null
    }
  ],
  "libraries": [],
  "pending": [],
  "returns": {},
  "timestamp": 1766080236789,
  "chain": 11155111,
  "commit": "884a673"
}