{
  "transactions": [
    {
      "hash": "0xda30ed93b46ef60604798d021fe99d2fb0eb6e259eae3add107cc062b7f7869f",
      "transactionType": "CALL",
      "contractName": null,
      "contractAddress": "0x482daea30df1ad963317d1880093287cd34aadd6",
      "function": "grantRole(bytes32,address)",
      "arguments": [
        "0x9f2df0fed2c77648de5860a4cc508cd0818c85b8b8a1ab4ceeef8d981c8956a6",
        "0x22319B3d1C2554E8b57D420C7CBB559acb496e3F"
      ],
      "transaction": {
        "from": "0x712893c6660c2afcefc63d0f3a4e7269ee3637ee",
        "to": "0x482daea30df1ad963317d1880093287cd34aadd6",
        "gas": "0x12995",
        "value": "0x0",
        "input": "0x2f2ff15d9f2df0fed2c77648de5860a4cc508cd0818c85b8b8a1ab4ceeef8d981c8956a600000000000000000000000022319b3d1c2554e8b57d420c7cbb559acb496e3f",
        "nonce": "0x4b",
        "chainId": "0xaa36a7"
      },
      "additionalContracts": [],
      "isFixedGasLimit": false
    },
    {
      "hash": "0x337ab08eff311672e8a2d01f2eb41a19a6975d8c5498b0667af5f6cb07819063",
      "transactionType": "CALL",
      "contractName": null,
      "contractAddress": "0x22319b3d1c2554e8b57d420c7cbb559acb496e3f",
      "function": "setRewardRate(uint256)",
      "arguments": [
        "50000000000000000"
      ],
      "transaction": {
        "from": "0x712893c6660c2afcefc63d0f3a4e7269ee3637ee",
        "to": "0x22319b3d1c2554e8b57d420c7cbb559acb496e3f",
        "gas": "0x12936",
        "value": "0x0",
        "input": "0x9e447fc600000000000000000000000000000000000000000000000000b1a2bc2ec50000",
        "nonce": "0x4c",
        "chainId": "0xaa36a7"
      },
      "additionalContracts": [],
      "isFixedGasLimit": false
    }
  ],
  "receipts": [
    {
      "status": "0x1",
      "cumulativeGasUsed": "0xb2bd66",
      "logs": [
        {
          "address": "0x482daea30df1ad963317d1880093287cd34aadd6",
          "topics": [
            "0x2f8788117e7eff1d82e926ec794901d17c78024a50270940304540a733656f0d",
            "0x9f2df0fed2c77648de5860a4cc508cd0818c85b8b8a1ab4ceeef8d981c8956a6",
            "0x00000000000000000000000022319b3d1c2554e8b57d420c7cbb559acb496e3f",
            "0x000000000000000000000000712893c6660c2afcefc63d0f3a4e7269ee3637ee"
          ],
          "data": "0x",
          "blockHash": "0x470eaedef09551fb39c84788950403ce43834c84ea35dcc5e277fb868b351806",
          "blockNumber": "0x966052",
          "blockTimestamp": "0x6941b2fc",
          "transactionHash": "0xda30ed93b46ef60604798d021fe99d2fb0eb6e259eae3add107cc062b7f7869f",
          "transactionIndex": "0x25",
          "logIndex": "0x35",
          "removed": false
        }
      ],
      "logsBloom": "0x08000004000004000000000000000000200000000000000000000000000000000200000000000000000000000000004000000000000000000000000000000000000000000000000000000000000000000000000000000000000000000000000000000010000000000000000000008000000000000000000000000000001000000000000000000000000000000000000000000000000000000000000000000000000000000000000000200000000000000000000000000000001000000000000000000000000000000000000000000000001000000000000100000080000000000000000040000000000000000000000000000000000000000000000000000000",
      "type": "0x2",
      "transactionHash": "0xda30ed93b46ef60604798d021fe99d2fb0eb6e259eae3add107cc062b7f7869f",
      "transactionIndex": "0x25",
      "blockHash": "0x470eaedef09551fb39c84788950403ce43834c84ea35dcc5e277fb868b351806",
      "blockNumber": "0x966052",
      "gasUsed": "0xcb7a",
      "effectiveGasPrice": "0x1427a0151",
      "from": "0x712893c6660c2afcefc63d0f3a4e7269ee3637ee",
      "to": "0x482daea30df1ad963317d1880093287cd34aadd6",
      "contractAddress": null
    },
    {
      "status": "0x1",
      "cumulativeGasUsed": "0xb39494",
      "logs": [
        {
          "address": "0x22319b3d1c2554e8b57d420c7cbb559acb496e3f",
          "topics": [
            "0xc390a98ace15a7bb6bab611eedfdbb2685043b241a869420043cdfb23ccfee50"
          ],
          "data": "0x000000000000000000000000000000000000000000000000000000000000000000000000000000000000000000000000000000000000000000b1a2bc2ec50000",
          "blockHash": "0x470eaedef09551fb39c84788950403ce43834c84ea35dcc5e277fb868b351806",
          "blockNumber": "0x966052",
          "blockTimestamp": "0x6941b2fc",
          "transactionHash": "0x337ab08eff311672e8a2d01f2eb41a19a6975d8c5498b0667af5f6cb07819063",
          "transactionIndex": "0x26",
          "logIndex": "0x36",
          "removed": false
        }
      ],
      "logsBloom": "0x00000000000000000010000000000000000002000000000000000000000020000000000000000000000000000000000000000000000000000000000000000000000000000000000000000000000000000000000000000400000000000000000000000000000000000000000000000000000000000000000000000000000000000000000000000000000000000000000000000000000000000000000000000000000000000000000000000000000000000400000000000000000000000000000000000000000000000000000000000000000000000000000000000000000000000000000000000000000000000000000000000000000000000000000020000000",
      "type": "0x2",
      "transactionHash": "0x337ab08eff311672e8a2d01f2eb41a19a6975d8c5498b0667af5f6cb07819063",
      "transactionIndex": "0x26",
      "blockHash": "0x470eaedef09551fb39c84788950403ce43834c84ea35dcc5e277fb868b351806",
      "blockNumber": "0x966052",
      "gasUsed": "0xd72e",
      "effectiveGasPrice": "0x1427a0151",
      "from": "0x712893c6660c2afcefc63d0f3a4e7269ee3637ee",
      "to": "0x22319b3d1c2554e8b57d420c7cbb559acb496e3f",
      "contractAddress": null
    }
  ],
  "libraries": [],
  "pending": [],
  "returns": {},
  "timestamp": 1765913340155,
  "chain": 11155111,
  "commit": "884a673"
}